:100000000C942A000C943F000C943F000C943F0089
:100010000C943F000C943F000C943F000C943F0064
:100020000C943F000C943F000C943F000C943F0054
:100030000C943F000C943F000C943F000C943F0044
:100040000C943F000C943F000C943F000C943F0034
:100050000C943F0011241FBECFE5D8E0DEBFCDBF1A
:1000600010E0A0E6B0E0EEE7F7E002C005900D92E8
:10007000AE36B107D9F70E9470030C94BD030C94FF
:10008000000087B1806487B987B18F7787B987B15E
:10009000806287B987B1816087B987B18D7F87B961
:1000A00087B18B7F87B987B1877F87B987B18F7E0B
:1000B00087B940E061E080E00E948F0080B78F7DCB
:1000C00080BF80B78F7B80BF80B78F7780BF089558
:1000D0000E94410086B18F7786B986B18F7B86B941
:1000E00086B1806186B986B18F7D86B986B1877FFA
:1000F00086B9089586B1806886B9089586B180640E
:1001000086B90895349BFECF84B185B196B19061D4
:1001100096B990E008958FB780688FBF08958130B9
:1001200001F130F08230B1F1833009F44CC0089510
:10013000413059F42AB381E090E002C0880F991F42
:100140006A95E2F7822B8ABB08952AB381E090E09A
:1001500002C0880F991F6A95E2F7809582238ABBB7
:100160000895413059F427B381E090E002C0880F30
:10017000991F6A95E2F7822B87BB089527B381E028
:1001800090E002C0880F991F6A95E2F7809582235C
:1001900087BB0895413059F424B381E090E002C058
:1001A000880F991F6A95E2F7822B84BB089524B3C8
:1001B00081E090E002C0880F991F6A95E2F7809570
:1001C000822384BB0895413059F421B381E090E04B
:1001D00002C0880F991F6A95E2F7822B81BB0895B0
:1001E00021B381E090E002C0880F991F6A95E2F781
:1001F0008095822381BB0895813001F130F08230F7
:10020000B1F1833009F44CC0089541110CC02BB3F7
:1002100081E090E002C0880F991F6A95E2F780950F
:1002200082238BBB08952BB381E090E002C0880F3E
:10023000991F6A95E2F7822B8BBB089541110CC080
:1002400028B381E090E002C0880F991F6A95E2F719
:100250008095822388BB089528B381E090E002C096
:10026000880F991F6A95E2F7822B88BB0895411188
:100270000CC025B381E090E002C0880F991F6A95F9
:10028000E2F78095822385BB089525B381E090E055
:1002900002C0880F991F6A95E2F7822B85BB0895EB
:1002A00041110CC022B381E090E002C0880F991F79
:1002B0006A95E2F78095822382BB089522B381E09C
:1002C00090E002C0880F991F6A95E2F7822B82BBEB
:1002D0000895CF93C82F40E060E081E00E94FC00C9
:1002E00040E061E081E00E94FC0040E062E081E0EB
:1002F0000E94FC0040E064E081E00E94FC0040E0DD
:1003000063E080E00E94FC00C4FB442740F960E009
:1003100081E00E94FC00C5FB442740F961E081E0D8
:100320000E94FC00C6FB442740F962E081E00E9485
:10033000FC004C2F441F4427441F64E081E00E94CE
:10034000FC0041E062E080E00E94FC0085E08A95CC
:10035000F1F7000040E062E080E00E94FC004C2FDA
:10036000417060E081E00E94FC00C1FB442740F93D
:1003700061E081E00E94FC00C2FB442740F962E09A
:1003800081E00E94FC00C3FB442740F964E081E067
:100390000E94FC0041E062E080E00E94FC0095E0E9
:1003A0009A95F1F7000040E062E080E00E94FC00D6
:1003B0008FE39FE10197F1F700C00000CF9108950E
:1003C000CF93C82F40E060E081E00E94FC0040E055
:1003D00061E081E00E94FC0040E062E081E00E9478
:1003E000FC0040E064E081E00E94FC0041E063E04A
:1003F00080E00E94FC00C4FB442740F960E081E0FB
:100400000E94FC00C5FB442740F961E081E00E94A6
:10041000FC00C6FB442740F962E081E00E94FC003A
:100420004C2F441F4427441F64E081E00E94FC00DD
:1004300041E062E080E00E94FC0085E08A95F1F7EF
:10044000000040E062E080E00E94FC004C2F417020
:1004500060E081E00E94FC00C1FB442740F961E0BC
:1004600081E00E94FC00C2FB442740F962E081E089
:100470000E94FC00C3FB442740F964E081E00E9435
:10048000FC0041E062E080E00E94FC0095E09A956B
:10049000F1F7000040E062E080E00E94FC008FE3A2
:1004A0009FE10197F1F700C00000CF9108950E94ED
:1004B000E0010895CF93DF93EC0103C021960E94E1
:1004C000570288818111FACFDF91CF910895813051
:1004D00059F028F0823069F0833081F0089580E887
:1004E000860F0E946901089580EC860F0E946901C1
:1004F000089584E9860F0E946901089584ED860FAE
:100500000E946901089541E063E080E00E948F004D
:1005100041E062E080E00E948F0041E060E081E025
:100520000E948F0041E061E081E00E948F0041E085
:1005300062E081E00E948F0041E064E081E00E947F
:100540008F0082E00E94690188E20E9469018CE0CC
:100550000E94690181E00E94690108951F93CF9371
:10056000DF93CDB7DEB7C456D1090FB6F894DEBF1E
:100570000FBECDBFAC0110E02BC09A01ADECBCECBE
:100580000E94AE0396958795969587959695879543
:100590009C01220F331F880F991F880F991F880F06
:1005A000991F820F931F9A01281B390BE1E0F0E09D
:1005B000EC0FFD1FE10FF11D20839A010E94AE0395
:1005C000AC015695479556954795569547951F5FAB
:1005D0004115510591F60EC0E12FF0E0319781E011
:1005E00090E08C0F9D1FE80FF91F8081805D0E94B5
:1005F000E00111501111F0CFCC59DF4F0FB6F89434
:10060000DEBF0FBECDBFDF91CF911F91089541E0B6
:1006100067E081E00E948F0041E064E080E00E949A
:100620008F0041E065E080E00E948F0041E066E0DD
:1006300080E00E948F0040E067E081E00E94FC00C3
:1006400040E064E080E00E94FC0040E065E080E083
:100650000E94FC0040E066E080E00E94FC000895FB
:10066000813061F028F0823079F0833099F008957C
:1006700041E067E081E00E94FC00089541E064E011
:1006800080E00E94FC00089541E065E080E00E9467
:10069000FC00089541E066E080E00E94FC000895BF
:1006A000813061F028F0823079F0833099F008953C
:1006B00040E067E081E00E94FC00089540E064E0D3
:1006C00080E00E94FC00089540E065E080E00E9428
:1006D000FC00089540E066E080E00E94FC00089580
:1006E0000E9407030E9468000E947A000E948B000B
:1006F0000E947E000E9483028EE00E94690180E6D3
:1007000090E00E945A020E947E0060E080E00E9419
:10071000670280E690E00E945A020E948200EC018B
:100720000E94AE022FEF83ED90E321508040904075
:10073000E1F700C0000081E00E946901CD2B21F4A7
:1007400081E00E94500303C081E00E9430036DE00D
:1007500080E00E9467020E947E00D7CFA29FB00176
:10076000B39FC001A39F700D811D1124911DB29FE5
:0E077000700D811D1124911D0895F894FFCF86
:0E077E004144432056414C55452049533A0012
:00000001FF
