S00B00004144432E7372656351
S11300000C942A000C943F000C943F000C943F0085
S11300100C943F000C943F000C943F000C943F0060
S11300200C943F000C943F000C943F000C943F0050
S11300300C943F000C943F000C943F000C943F0040
S11300400C943F000C943F000C943F000C943F0030
S11300500C943F0011241FBECFE5D8E0DEBFCDBF16
S113006010E0A0E6B0E0E8E8F7E002C005900D92E9
S1130070AE36B107D9F70E9479030C94C2030C94ED
S1130080000087B1806487B987B18F7787B987B15A
S1130090806287B987B1816087B987B18D7F87B95D
S11300A087B18B7F87B987B1877F87B987B18F7E07
S11300B087B940E061E080E00E94920080B78F7DC4
S11300C080BF80B78F7B80BF80B78F7780BF089554
S11300D00E94410086B18F7786B986B18F7B86B93D
S11300E086B1806186B986B18F7D86B986B1877FF6
S11300F086B9089586B1806886B9089586B180640A
S113010086B90895349BFECF84B185B196B19061D0
S113011096B996B19F7B96B990E008958FB78068A1
S11301208FBF0895813001F130F08230B1F1833016
S113013009F44CC00895413059F42AB381E090E0A9
S113014002C0880F991F6A95E2F7822B8ABB089533
S11301502AB381E090E002C0880F991F6A95E2F704
S1130160809582238ABB0895413059F427B381E0F6
S113017090E002C0880F991F6A95E2F7822B87BB33
S1130180089527B381E090E002C0880F991F6A9513
S1130190E2F78095822387BB0895413059F424B354
S11301A081E090E002C0880F991F6A95E2F7822BE4
S11301B084BB089524B381E090E002C0880F991FA6
S11301C06A95E2F78095822384BB0895413059F4FF
S11301D021B381E090E002C0880F991F6A95E2F78D
S11301E0822B81BB089521B381E090E002C0880F87
S11301F0991F6A95E2F78095822381BB0895813027
S113020001F130F08230B1F1833009F44CC008952B
S113021041110CC02BB381E090E002C0880F991FFC
S11302206A95E2F7809582238BBB08952BB381E016
S113023090E002C0880F991F6A95E2F7822B8BBB6E
S1130240089541110CC028B381E090E002C0880FEA
S1130250991F6A95E2F78095822388BB089528B395
S113026081E090E002C0880F991F6A95E2F7822B23
S113027088BB089541110CC025B381E090E002C011
S1130280880F991F6A95E2F78095822385BB0895AC
S113029025B381E090E002C0880F991F6A95E2F7C8
S11302A0822B85BB089541110CC022B381E090E0FC
S11302B002C0880F991F6A95E2F78095822382BB5A
S11302C0089522B381E090E002C0880F991F6A95D7
S11302D0E2F7822B82BB0895CF93C82F40E060E001
S11302E081E00E94FF0040E061E081E00E94FF00A5
S11302F040E062E081E00E94FF0040E064E081E0D1
S11303000E94FF0040E063E080E00E94FF00C4FB25
S1130310442740F960E081E00E94FF00C5FB4427C8
S113032040F961E081E00E94FF00C6FB442740F9E8
S113033062E081E00E94FF004C2F441F4427441FC9
S113034064E081E00E94FF0041E062E080E00E94FE
S1130350FF0085E08A95F1F7000040E062E080E06C
S11303600E94FF004C2F417060E081E00E94FF007A
S1130370C1FB442740F961E081E00E94FF00C2FB19
S1130380442740F962E081E00E94FF00C3FB442758
S113039040F964E081E00E94FF0041E062E080E017
S11303A00E94FF0095E09A95F1F7000040E062E0BA
S11303B080E00E94FF008FE39FE10197F1F700C006
S11303C00000CF910895CF93C82F40E060E081E012
S11303D00E94FF0040E061E081E00E94FF0040E0F5
S11303E062E081E00E94FF0040E064E081E00E945E
S11303F0FF0041E063E080E00E94FF00C4FB44276B
S113040040F960E081E00E94FF00C5FB442740F909
S113041061E081E00E94FF00C6FB442740F962E0EE
S113042081E00E94FF004C2F441F4427441F64E0D6
S113043081E00E94FF0041E062E080E00E94FF0052
S113044085E08A95F1F7000040E062E080E00E94D8
S1130450FF004C2F417060E081E00E94FF00C1FB6F
S1130460442740F961E081E00E94FF00C2FB442779
S113047040F962E081E00E94FF00C3FB442740F999
S113048064E081E00E94FF0041E062E080E00E94BD
S1130490FF0095E09A95F1F7000040E062E080E00B
S11304A00E94FF008FE39FE10197F1F700C0000075
S11304B0CF9108950E94E3010895CF93DF93EC0157
S11304C003C021960E945A0288818111FACFDF91DC
S11304D0CF910895813059F028F0823069F083304B
S11304E081F0089580E8860F0E946C01089580ECE5
S11304F0860F0E946C01089584E9860F0E946C01A6
S1130500089584ED860F0E946C01089541E063E034
S113051080E00E94920041E062E080E00E9492004C
S113052041E060E081E00E94920041E061E081E00E
S11305300E94920041E062E081E00E94920041E06A
S113054064E081E00E94920082E00E946C0188E2F3
S11305500E946C018CE00E946C0181E00E946C019D
S113056008951F93CF93DF93CDB7DEB7C456D10957
S11305700FB6F894DEBF0FBECDBFAC01892B81F559
S113058080E30E94E30141C09A01ADECBCEC0E94FF
S1130590B3039695879596958795969587959C012F
S11305A0220F331F880F991F880F991F880F991FD7
S11305B0820F931F9A01281B390BE1E0F0E0EC0F46
S11305C0FD1FE10FF11D20839A010E94B303AC01CA
S11305D05695479556954795569547951F5F01C083
S11305E010E04115510581F60EC0E12FF0E031977E
S11305F081E090E08C0F9D1FE80FF91F8081805DE2
S11306000E94E30111501111F0CFCC59DF4F0FB606
S1130610F894DEBF0FBECDBFDF91CF911F91089537
S113062041E067E081E00E94920041E064E080E004
S11306300E94920041E065E080E00E94920041E067
S113064066E080E00E94920040E067E081E00E9462
S1130650FF0040E064E080E00E94FF0040E065E0CD
S113066080E00E94FF0040E066E080E00E94FF001E
S11306700895813061F028F0823079F0833099F068
S1130680089541E067E081E00E94FF00089541E0A1
S113069064E080E00E94FF00089541E065E080E0AE
S11306A00E94FF00089541E066E080E00E94FF00A0
S11306B00895813061F028F0823079F0833099F028
S11306C0089540E067E081E00E94FF00089540E063
S11306D064E080E00E94FF00089540E065E080E06F
S11306E00E94FF00089540E066E080E00E94FF0061
S11306F008950E9410030E9468000E947A000E94DC
S11307008E000E9486028EE00E946C0180E690E0DA
S11307100E945D020E947E0060E080E00E946A0206
S113072080E690E00E945D020E948200EC010E943B
S1130730B1022FEF83ED90E3215080409040E1F728
S113074000C0000081E00E946C01CD2B21F481E007
S11307500E94590303C081E00E9439036DE080E0E8
S11307600E946A02D7CFA29FB001B39FC001A39F8A
S1130770700D811D1124911DB29F700D811D1124D6
S10B0780911D0895F894FFCFC8
S11107884144432056414C55452049533A0004
S9030000FC
