:100000000C942A000C9434000C9434000C943400AA
:100010000C9434000C9434000C9434000C94340090
:100020000C9434000C9434000C9434000C94340080
:100030000C9434000C9434000C9434000C94340070
:100040000C9434000C9434000C9434000C94340060
:100050000C94340011241FBECFE5D8E0DEBFCDBF25
:100060000E9410010C946C010C940000813001F18D
:1000700030F08230B1F1833009F44CC00895413042
:1000800059F42AB381E090E002C0880F991F6A9565
:10009000E2F7822B8ABB08952AB381E090E002C088
:1000A000880F991F6A95E2F7809582238ABB08958D
:1000B000413059F427B381E090E002C0880F991FC6
:1000C0006A95E2F7822B87BB089527B381E090E021
:1000D00002C0880F991F6A95E2F78095822387BB3B
:1000E0000895413059F424B381E090E002C0880FB4
:1000F000991F6A95E2F7822B84BB089524B381E0AF
:1001000090E002C0880F991F6A95E2F780958223DC
:1001100084BB0895413059F421B381E090E002C0DE
:10012000880F991F6A95E2F7822B81BB089521B34E
:1001300081E090E002C0880F991F6A95E2F78095F0
:10014000822381BB0895813001F130F08230B1F11A
:10015000833009F44CC0089541110CC02BB381E0E9
:1001600090E002C0880F991F6A95E2F7809582237C
:100170008BBB08952BB381E090E002C0880F991FDC
:100180006A95E2F7822B8BBB089541110CC028B30E
:1001900081E090E002C0880F991F6A95E2F7809590
:1001A000822388BB089528B381E090E002C0880FC5
:1001B000991F6A95E2F7822B88BB089541110CC004
:1001C00025B381E090E002C0880F991F6A95E2F79D
:1001D0008095822385BB089525B381E090E002C01D
:1001E000880F991F6A95E2F7822B85BB089541110C
:1001F0000CC022B381E090E002C0880F991F6A957D
:10020000E2F78095822382BB089522B381E090E0DB
:1002100002C0880F991F6A95E2F7822B82BB08956E
:100220000E9437010E94680180EF0E945C012FEF5D
:1002300081EE94E0215080409040E1F700C0000042
:10024000F3CF8DB18F7D8DB98DB180618DB98DB1B9
:100250008E7F8DB98DB182608DB98DB181608DB980
:100260008DB188608DB98DB18B7F8DB908950E9455
:1002700021018DB180688DB941E065E081E00E9487
:10028000360040E066E081E00E94360041E067E031
:1002900081E00E94360041E064E081E00E94360087
:1002A00041E064E081E00E94A3008DB180618DB9DE
:1002B0008DB180648DB90895CF93C82F40E064E07C
:1002C00081E00E94A300CFB9779BFECFCF91089524
:0C02D0008FB780688FBF0895F894FFCFAF
:00000001FF
