:100000000C942A000C9434000C9434000C943400AA
:100010000C9434000C9434000C9434000C94340090
:100020000C9434000C9434000C9434000C94340080
:100030000C9434000C9434000C9434000C94340070
:100040000C9434000C9434000C9434000C94340060
:100050000C94340011241FBECFE5D8E0DEBFCDBF25
:100060000E9436000C945A000C94000087E690E041
:100070000E94400081E00E9452000E945600FACF88
:1000800089B990BD8AB180618AB98AB188608AB91C
:1000900080B5866A80BD8AB180688AB98AB1806479
:1000A0008AB908955D9BFECF8CB908955F99FECF04
:0800B0008CB10895F894FFCF14
:00000001FF
