S012000053535F446973706C61792E7372656337
S11300000C9434000C9451000C9451000C94510045
S11300100C9451000C9451000C9451000C94510018
S11300200C9451000C9451000C9451000C94510008
S11300300C9451000C9451000C9451000C945100F8
S11300400C9451000C9451000C9451000C945100E8
S11300500C94510015042A043F04540469047E04DA
S11300609304A804BD04D20411241FBECFE5D8E034
S1130070DEBFCDBF10E0A0E6B0E0EEE0F1E102C0EB
S113008005900D92A836B107D9F720E0A8E6B0E0B4
S113009001C01D92AE36B207E1F70E94B9020C947A
S11300A085080C94000040E067E083E00E9448016A
S11300B040E066E083E00E94480140E065E083E0C0
S11300C00E94480140E063E083E00E9448010895F3
S11300D0813071F028F0823099F08330C9F020C06B
S11300E067E083E00E94220281111CC081E0089530
S11300F066E083E00E942202811116C081E0089527
S113010065E083E00E942202811110C081E008951D
S113011063E083E00E94220281110AC081E0089515
S113012080E0089580E0089580E0089580E00895D7
S113013080E0089541E066E082E00E94480140E0EA
S113014066E082E00E94B50108952FEF86E191E117
S1130150215080409040E1F700C0000041E066E09B
S113016082E00E94B5012FEF86E191E121508040A9
S11301709040E1F700C0000040E066E082E00E94A9
S1130180B5012FEF83EC99E0215080409040E1F7D6
S113019000C0000041E066E082E00E94B5012FEF5C
S11301A086E191E1215080409040E1F700C00000D9
S11301B040E066E082E00E94B5012FEF83EC99E015
S11301C0215080409040E1F700C0000041E066E02B
S11301D082E00E94B5012FEF86E191E12150804039
S11301E09040E1F700C0000040E066E082E00E9439
S11301F0B5012FEF83EC99E0215080409040E1F766
S113020000C000000895CF93DF93C0E0D0E026C083
S11302102FEF82E597E0215080409040E1F700C045
S1130220000041E066E082E00E94B5012FEF82E524
S113023097E0215080409040E1F700C0000040E08A
S113024066E082E00E94B5012FEF82E597E021503D
S113025080409040E1F700C000002196CA30D105EB
S1130260BCF2DF91CF91089541E066E082E00E9404
S1130270B5012FE78BE898E0215080409040E1F7EA
S113028000C0000040E066E082E00E94B5010895ED
S1130290813001F130F08230B1F1833009F44CC087
S11302A00895413059F42AB381E090E002C0880FE8
S11302B0991F6A95E2F7822B8ABB08952AB381E0DD
S11302C090E002C0880F991F6A95E2F78095822317
S11302D08ABB0895413059F427B381E090E002C00D
S11302E0880F991F6A95E2F7822B87BB089527B37D
S11302F081E090E002C0880F991F6A95E2F780952B
S1130300822387BB0895413059F424B381E090E0FF
S113031002C0880F991F6A95E2F7822B84BB089567
S113032024B381E090E002C0880F991F6A95E2F738
S11303308095822384BB0895413059F421B381E030
S113034090E002C0880F991F6A95E2F7822B81BB67
S1130350089521B381E090E002C0880F991F6A9547
S1130360E2F78095822381BB0895813001F130F05A
S11303708230B1F1833009F44CC0089541110CC0AE
S11303802BB381E090E002C0880F991F6A95E2F7D1
S1130390809582238BBB08952BB381E090E002C04B
S11303A0880F991F6A95E2F7822B8BBB0895411140
S11303B00CC028B381E090E002C0880F991F6A95B1
S11303C0E2F78095822388BB089528B381E090E00A
S11303D002C0880F991F6A95E2F7822B88BB0895A3
S11303E041110CC025B381E090E002C0880F991F31
S11303F06A95E2F78095822385BB089525B381E051
S113040090E002C0880F991F6A95E2F7822B85BBA2
S1130410089541110CC022B381E090E002C0880F1E
S1130420991F6A95E2F78095822382BB089522B3CF
S113043081E090E002C0880F991F6A95E2F7822B51
S113044082BB0895813079F028F08230A9F083309E
S1130450E1F024C089B390E002C0959587956A9530
S1130460E2F78170089586B390E002C09595879570
S11304706A95E2F78170089583B390E002C0959580
S113048087956A95E2F78170089580B390E002C081
S1130490959587956A95E2F78170089580E00895AF
S11304A041E067E081E00E94480141E064E080E0CF
S11304B00E94480141E065E080E00E94480141E07B
S11304C066E080E00E94480140E067E081E00E942D
S11304D0B50140E064E080E00E94B50140E065E0E1
S11304E080E00E94B50140E066E080E00E94B50132
S11304F00895813061F028F0823079F0833099F0EA
S1130500089541E067E081E00E94B501089541E06B
S113051064E080E00E94B501089541E065E080E078
S11305200E94B501089541E066E080E00E94B501B3
S11305300895813061F028F0823079F0833099F0A9
S1130540089540E067E081E00E94B501089540E02D
S113055064E080E00E94B501089540E065E080E039
S11305600E94B501089540E066E080E00E94B50174
S113057008950E9450020E9453000E949A000E9413
S11305804D030E94E7040E945408FDCF80E00E94BE
S11305906800813079F4809160008F5F80936000FF
S11305A083E00E9479020E94340183E00E94990250
S11305B080E0089581E00E946800813079F48091A0
S11305C060008F5F8093600083E00E9479020E9444
S11305D0340183E00E94990281E0089582E00E9440
S11305E06800813079F4809160008F5F80936000AF
S11305F083E00E9479020E94340183E00E94990200
S113060082E0089583E00E946800813051F482E022
S11306100E9479020E94340182E00E94990283E0E0
S113062008958FEF0895813059F018F0823081F0E9
S1130630089580916000FB01E80FF11D1082089578
S113064080916000FB01E80FF11D81E08083089533
S113065080916000FB01E80FF11D82E08083089522
S1130660DC01809160008530A1F420E030E00CC012
S1130670FD01E20FF31F4081FB01E20FF31F9081A4
S1130680491309C02F5F3F4F263031058CF381E0B9
S1130690089580E0089580E008950F931F93CF9309
S11306A0DF93CDB7DEB760970FB6F894DEBF0FBE09
S11306B0CDBF86E0E1E6F0E0DE01119601900D92F7
S11306C08A95E1F700E010E048C00E94C6029091CC
S11306D060009930B9F480E00E9479020E943401EC
S11306E00E9434010E9434010E94340180E00E947F
S11306F0990282E00E9479020E94340182E00E9401
S113070099020DC0833030F4BE01695F7F4F0E94AF
S1130710130303C0833009F411E01123B1F2BE01C5
S1130720695F7F4FCE0101960E943003813049F406
S11307300E9479020E94A50081E00E94990201E0D2
S113074009C080E00E9479020E94030180E00E94B7
S1130750990210E08FEF809360000023F1F260961D
S11307600FB6F894DEBF0FBECDBFDF91CF911F91BE
S11307700F91089541E060E081E00E94480141E06A
S113078061E081E00E94480141E062E081E00E9472
S1130790480141E064E081E00E94480141E063E0F7
S11307A080E00E94480141E062E080E00E9448014C
S11307B041E065E081E00E94480141E066E081E0BB
S11307C00E94480140E060E081E00E94B50140E001
S11307D061E081E00E94B50140E062E081E00E94B6
S11307E0B50140E064E081E00E94B50140E063E0CF
S11307F080E00E94B50140E062E080E00E94B50123
S113080040E065E081E00E94B50140E066E081E0FF
S11308100E94B501089590E08A30910508F0D6C091
S1130820FC01E65DFF4F0C94700840E060E081E05D
S11308300E94B50140E061E081E00E94B50140E022
S113084062E081E00E94B50140E064E081E00E9442
S1130850B501089541E060E081E00E94B50140E007
S113086061E081E00E94B50140E062E081E00E9425
S1130870B50140E064E081E00E94B501089540E0E4
S113088060E081E00E94B50141E061E081E00E9406
S1130890B50140E062E081E00E94B50140E064E01F
S11308A081E00E94B501089541E060E081E00E948A
S11308B0B50141E061E081E00E94B50140E062E001
S11308C081E00E94B50140E064E081E00E94B5014E
S11308D0089540E060E081E00E94B50140E061E0FD
S11308E081E00E94B50141E062E081E00E94B5012F
S11308F040E064E081E00E94B501089541E060E0D9
S113090081E00E94B50140E061E081E00E94B50110
S113091041E062E081E00E94B50140E064E081E0F2
S11309200E94B501089540E060E081E00E94B501B5
S113093041E061E081E00E94B50141E062E081E0D4
S11309400E94B50140E064E081E00E94B501089591
S113095041E060E081E00E94B50141E061E081E0B6
S11309600E94B50141E062E081E00E94B50140E0EF
S113097064E081E00E94B501089540E060E081E018
S11309800E94B50140E061E081E00E94B50140E0D1
S113099062E081E00E94B50141E064E081E00E94F0
S11309A0B501089541E060E081E00E94B50140E0B6
S11309B061E081E00E94B50140E062E081E00E94D4
S11309C0B50141E064E081E00E94B50108950E9410
S11309D0BA0308950F931F93CF93DF938091680018
S11309E090916900803127E29207E8F01092690043
S11309F01092680040E063E080E00E94B50140E0AE
S1130A0062E080E00E94B50140E066E081E00E947F
S1130A10B50140E065E080E00E94B5018091680086
S1130A200E940B04F7C001969093690080936800BC
S1130A3000E010E0EBC040916800509169009A0119
S1130A40369527953695279536952795A5ECB0E2EA
S1130A500E947608929582958F7089279F708927C6
S1130A6090936D0080936C0068EE73E0869F900114
S1130A70879F300D969F300D1124421B530B5093CA
S1130A806B0040936A0041E063E080E00E94B5019E
S1130A9041E062E080E00E94B50141E065E081E070
S1130AA00E94B50140E066E081E00E94B501CCE619
S1130AB0D0E088810E940B048FEC97E00197F1F756
S1130AC000C0000040916A0050916B009A01369575
S1130AD0279536952795ABE7B4E10E94760896955D
S1130AE0879590936D0080936C0064E6689F9001F5
S1130AF0699F300D1124421B530B50936B0040939C
S1130B006A0041E063E080E00E94B50141E062E0F8
S1130B1080E00E94B50141E066E081E00E94B501F9
S1130B2040E065E081E00E94B50188810E940B04E9
S1130B308FEC97E00197F1F700C0000040916A0044
S1130B4050916B009A01ADECBCEC0E94760896952E
S1130B508795969587959695879590936D00809344
S1130B606C009C01220F331F880F991F880F991F57
S1130B70880F991F820F931F481B590B50936B00CA
S1130B8040936A0041E063E080E00E94B50141E0E7
S1130B9065E081E00E94B50141E066E081E00E94E9
S1130BA0B50140E062E080E00E94B50188810E94C6
S1130BB00B048FEC97E00197F1F700C000008091DF
S1130BC06A0090916B0090936D0080936C0041E0FB
S1130BD066E081E00E94B50141E062E080E00E94AD
S1130BE0B50141E065E081E00E94B50140E063E0C9
S1130BF080E00E94B50188810E940B048FEC97E08D
S1130C000197F1F700C000000F5F1F4F0436110574
S1130C100CF411CFDF91CF911F910F9108950F9391
S1130C201F93CF93DF9380916800909169000097A0
S1130C3021F58FE097E2909369008093680040E08B
S1130C4063E080E00E94B50140E062E080E00E9441
S1130C50B50140E066E081E00E94B50140E065E056
S1130C6080E00E94B50189E00E940B048FE19EE4BC
S1130C700197F1F700C00000F7C001979093690055
S1130C808093680000E010E0EBC040916800509150
S1130C9069009A01369527953695279536952795B7
S1130CA0A5ECB0E20E947608929582958F70892710
S1130CB09F70892790936D0080936C0068EE73E0B9
S1130CC0869F9001879F300D969F300D1124421B03
S1130CD0530B50936B0040936A0041E063E080E063
S1130CE00E94B50141E062E080E00E94B50141E06C
S1130CF065E081E00E94B50140E066E081E00E9489
S1130D00B501CCE6D0E088810E940B048FEC97E01B
S1130D100197F1F700C0000040916A0050916B0008
S1130D209A013695279536952795ABE7B4E10E944D
S1130D3076089695879590936D0080936C0064E691
S1130D40689F9001699F300D1124421B530B5093EF
S1130D506B0040936A0041E063E080E00E94B501CB
S1130D6041E062E080E00E94B50141E066E081E09C
S1130D700E94B50140E065E081E00E94B5018881F0
S1130D800E940B048FEC97E00197F1F700C000007C
S1130D9040916A0050916B009A01ADECBCEC0E944A
S1130DA076089695879596958795969587959093C9
S1130DB06D0080936C009C01220F331F880F991FD4
S1130DC0880F991F880F991F820F931F481B590B77
S1130DD050936B0040936A0041E063E080E00E941E
S1130DE0B50141E065E081E00E94B50141E066E0C3
S1130DF081E00E94B50140E062E080E00E94B5011C
S1130E0088810E940B048FEC97E00197F1F700C0F2
S1130E10000080916A0090916B0090936D00809324
S1130E206C0041E066E081E00E94B50141E062E0CF
S1130E3080E00E94B50141E065E081E00E94B501D7
S1130E4040E063E080E00E94B50188810E940B04C9
S1130E508FEC97E00197F1F700C000000F5F1F4F80
S1130E60043611050CF411CFDF91CF911F910F912E
S1130E7008950F931F93CF93DF938091680090910F
S1130E806900892B09F005C140E063E080E00E941D
S1130E90B50140E062E080E00E94B50140E065E019
S1130EA081E00E94B50140E066E081E00E94B50166
S1130EB080916A000E940B04F2C040916800509136
S1130EC069009A0136952795369527953695279585
S1130ED0A5ECB0E20E947608929582958F708927DE
S1130EE09F70892790936D0080936C0068EE73E087
S1130EF0869F9001879F300D969F300D1124421BD1
S1130F00530B50936B0040936A0041E063E080E030
S1130F100E94B50141E062E080E00E94B50141E039
S1130F2065E081E00E94B50140E066E081E00E9456
S1130F30B501CCE6D0E088810E940B048FEC97E0E9
S1130F400197F1F700C0000040916A0050916B00D6
S1130F509A013695279536952795ABE7B4E10E941B
S1130F6076089695879590936D0080936C0064E65F
S1130F70689F9001699F300D1124421B530B5093BD
S1130F806B0040936A0041E063E080E00E94B50199
S1130F9041E062E080E00E94B50141E066E081E06A
S1130FA00E94B50140E065E081E00E94B5018881BE
S1130FB00E940B048FEC97E00197F1F700C000004A
S1130FC040916A0050916B009A01ADECBCEC0E9418
S1130FD07608969587959695879596958795909397
S1130FE06D0080936C009C01220F331F880F991FA2
S1130FF0880F991F880F991F820F931F481B590B45
S113100050936B0040936A0041E063E080E00E94EB
S1131010B50141E065E081E00E94B50141E066E090
S113102081E00E94B50140E062E080E00E94B501E9
S113103088810E940B048FEC97E00197F1F700C0C0
S1131040000080916A0090916B0090936D008093F2
S11310506C0041E066E081E00E94B50141E062E09D
S113106080E00E94B50141E065E081E00E94B501A5
S113107040E063E080E00E94B50188810E940B0497
S11310808FEC97E00197F1F700C000000F5F1F4F4E
S113109002C000E010E0053011050CF40ECFDF9122
S11310A0CF911F910F91089580E00E9468008130D4
S11310B039F081E00E946800813021F08FEF03C095
S11310C080E001C081E0811103C00E94EA04089518
S11310D0813019F40E940F0608950E94390708957B
S11310E0EE0FFF1F0590F491E02D0994A29FB0012B
S11310F0B39FC001A39F700D811D1124911DB29F48
S1111100700D811D1124911D0895F894FFCFE8
S10B110EFF00000102020200CF
S9030000FC
