S00D000045585449302E73726563AD
S11300000C942A000C9488010C943C000C943C0041
S11300100C943C000C943C000C943C000C943C006C
S11300200C943C000C943C000C943C000C943C005C
S11300300C943C000C943C000C943C000C943C004C
S11300400C943C000C943C000C943C000C943C003C
S11300500C943C0011241FBECFE5D8E0DEBFCDBF19
S113006020E0A0E6B0E001C01D92A236B207E1F79D
S11300700E9401020C940E020C94000040E067E020
S113008083E00E94530040E066E083E00E94530056
S113009040E065E083E00E94530040E063E083E0D9
S11300A00E9453000895813001F130F08230B1F1A3
S11300B0833009F44CC00895413059F42AB381E0E7
S11300C090E002C0880F991F6A95E2F7822B8ABBE1
S11300D008952AB381E090E002C0880F991F6A95C1
S11300E0E2F7809582238ABB0895413059F427B3FF
S11300F081E090E002C0880F991F6A95E2F7822B95
S113010087BB089527B381E090E002C0880F991F50
S11301106A95E2F78095822387BB0895413059F4AC
S113012024B381E090E002C0880F991F6A95E2F73A
S1130130822B84BB089524B381E090E002C0880F31
S1130140991F6A95E2F78095822384BB0895413014
S113015059F421B381E090E002C0880F991F6A9599
S1130160E2F7822B81BB089521B381E090E002C0C5
S1130170880F991F6A95E2F78095822381BB0895C1
S1130180813001F130F08230B1F1833009F44CC098
S1130190089541110CC02BB381E090E002C0880F98
S11301A0991F6A95E2F7809582238BBB08952BB340
S11301B081E090E002C0880F991F6A95E2F7822BD4
S11301C08BBB089541110CC028B381E090E002C0BC
S11301D0880F991F6A95E2F78095822388BB08955A
S11301E028B381E090E002C0880F991F6A95E2F776
S11301F0822B88BB089541110CC025B381E090E0A7
S113020002C0880F991F6A95E2F78095822385BB07
S1130210089525B381E090E002C0880F991F6A9584
S1130220E2F7822B85BB089541110CC022B381E013
S113023090E002C0880F991F6A95E2F780958223A7
S113024082BB089522B381E090E002C0880F991F19
S11302506A95E2F7822B82BB0895813089F028F0F9
S11302608230C9F0833011F108952BB381E090E01E
S113027002C0880F991F6A95E2F782278BBB089505
S113028028B381E090E002C0880F991F6A95E2F7D5
S1130290822788BB089525B381E090E002C0880FCF
S11302A0991F6A95E2F7822785BB089522B381E0FE
S11302B090E002C0880F991F6A95E2F7822782BBFB
S11302C0089540E062E083E00E94530085B740E077
S11302D060E00E94C00085B741E061E00E94C00078
S11302E008950E9461018BB78F7B8BBF8AB78064AE
S11302F08ABF8FB780688FBF08958BB780648BBF28
S11303000895009721F09093610080936000089510
S11303101F920F920FB60F9211242F933F934F9376
S11303205F936F937F938F939F93AF93BF93EF9359
S1130330FF93E0916000F09161000995FF91EF91C6
S1130340BF91AF919F918F917F916F915F914F91E9
S11303503F912F910F900FBE0F901F90189541E081
S113036067E081E00E94530041E064E080E00E9485
S1130370530041E065E080E00E94530041E066E004
S113038080E00E94530040E067E081E00E94C000EA
S113039040E064E080E00E94C00040E065E080E06E
S11303A00E94C00040E066E080E00E94C000089522
S11303B0813059F028F0823069F0833081F008955B
S11303C067E081E00E942D01089564E080E00E94CE
S11303D02D01089565E080E00E942D01089566E0F6
S11303E080E00E942D01089581E00E94D8012FEF42
S11303F084E39CE0215080409040E1F700C000007D
S1130400089584EF91E00E9481010E94AF010E944F
S11304103E000E9471010E947D01FFCFF894FFCF3E
S9030000FC
