:100000000C942A000C9434000C9434000C943400AA
:100010000C9434000C9434000C9434000C94340090
:100020000C9434000C9434000C9434000C94340080
:100030000C9434000C9434000C9434000C94340070
:100040000C9434000C9434000C9434000C94340060
:100050000C94340011241FBECFE5D8E0DEBFCDBF25
:100060000E94A0010C94D4010C940000843008F08C
:1000700072C0683008F06FC04130A1F5813089F05E
:1000800028F08230C9F0833011F108952AB381E05D
:1000900090E002C0880F991F6A95E2F7822B8ABB15
:1000A000089527B381E090E002C0880F991F6A95F8
:1000B000E2F7822B87BB089524B381E090E002C071
:1000C000880F991F6A95E2F7822B84BB089521B3AC
:1000D00081E090E002C0880F991F6A95E2F7822BB9
:1000E00081BB0895411137C0813091F028F08230F2
:1000F000D9F0833029F108952AB381E090E002C05D
:10010000880F991F6A95E2F7809582238ABB08952C
:1001100027B381E090E002C0880F991F6A95E2F74B
:100120008095822387BB089524B381E090E002C0CC
:10013000880F991F6A95E2F78095822384BB089502
:1001400021B381E090E002C0880F991F6A95E2F721
:100150008095822381BB0895843008F072C0683096
:1001600008F06FC04130A1F5813089F028F082306D
:10017000C9F0833011F108952BB381E090E002C003
:10018000880F991F6A95E2F7822B8BBB089528B3DD
:1001900081E090E002C0880F991F6A95E2F7822BF8
:1001A00088BB089525B381E090E002C0880F991FB5
:1001B0006A95E2F7822B85BB089522B381E090E037
:1001C00002C0880F991F6A95E2F7822B82BB0895BF
:1001D000411137C0813091F028F08230D9F083305E
:1001E00029F108952BB381E090E002C0880F991F98
:1001F0006A95E2F7809582238BBB089528B381E04E
:1002000090E002C0880F991F6A95E2F780958223DB
:1002100088BB089525B381E090E002C0880F991F44
:100220006A95E2F78095822385BB089522B381E029
:1002300090E002C0880F991F6A95E2F780958223AB
:1002400082BB0895843070F5683070F5813079F0A4
:1002500028F08230A9F08330E1F028C089B390E023
:1002600002C0959587956A95E2F78170089586B3E7
:1002700090E002C0959587956A95E2F781700895A0
:1002800083B390E002C0959587956A95E2F78170F7
:10029000089580B390E002C0959587956A95E2F73E
:1002A000817008958FEF08958FEF08958FEF08956F
:1002B00088E480B981B18E7F81B981B18D7F81B9A8
:1002C00086B7806486BF82B18E7F82B986B784602C
:1002D00086BF089586B7806286BF86B7806886BF6E
:1002E00006B607FEFDCF81B1887F883011F480E02B
:1002F000089581E00895880F83B983B18E7F83B913
:1003000086B78F7D86BF86B7806886BF06B607FE34
:10031000FDCF81B1887F883111F480E0089584E0B9
:10032000089583B986B7806886BF06B607FEFDCFFD
:1003300081B1887F883211F480E0089585E00895C6
:1003400040E060E080E00E94360041E060E080E054
:100350000E94AC0040E061E080E00E94360041E095
:1003600061E080E00E94AC000E9458010E946A0196
:1003700080E10E947B01C82F81110AC060E080E00B
:100380000E942201811104C088E40E949101EECFF5
:10039000C111ECCF61E080E00E9422018111E6CF23
:0C03A0008CE40E949101E2CFF894FFCFA2
:00000001FF
