S00D00004558312E312E73726563EA
S11300000C942A000C9434000C9434000C943400A6
S11300100C9434000C9434000C9434000C9434008C
S11300200C9434000C9434000C9434000C9434007C
S11300300C9434000C9434000C9434000C9434006C
S11300400C9434000C9434000C9434000C9434005C
S11300500C94340011241FBECFE5D8E0DEBFCDBF21
S11300600E9489010C9498010C940000813001F1E4
S113007030F08230B1F1833009F44CC0089541303E
S113008059F42AB381E090E002C0880F991F6A9561
S1130090E2F7822B8ABB08952AB381E090E002C084
S11300A0880F991F6A95E2F7809582238ABB089589
S11300B0413059F427B381E090E002C0880F991FC2
S11300C06A95E2F7822B87BB089527B381E090E01D
S11300D002C0880F991F6A95E2F78095822387BB37
S11300E00895413059F424B381E090E002C0880FB0
S11300F0991F6A95E2F7822B84BB089524B381E0AB
S113010090E002C0880F991F6A95E2F780958223D8
S113011084BB0895413059F421B381E090E002C0DA
S1130120880F991F6A95E2F7822B81BB089521B34A
S113013081E090E002C0880F991F6A95E2F78095EC
S1130140822381BB0895813001F130F08230B1F116
S1130150833009F44CC0089541110CC02BB381E0E5
S113016090E002C0880F991F6A95E2F78095822378
S11301708BBB08952BB381E090E002C0880F991FD8
S11301806A95E2F7822B8BBB089541110CC028B30A
S113019081E090E002C0880F991F6A95E2F780958C
S11301A0822388BB089528B381E090E002C0880FC1
S11301B0991F6A95E2F7822B88BB089541110CC000
S11301C025B381E090E002C0880F991F6A95E2F799
S11301D08095822385BB089525B381E090E002C019
S11301E0880F991F6A95E2F7822B85BB0895411108
S11301F00CC022B381E090E002C0880F991F6A9579
S1130200E2F78095822382BB089522B381E090E0D7
S113021002C0880F991F6A95E2F7822B82BB08956A
S1130220813089F028F08230C9F0833011F10895CB
S11302302BB381E090E002C0880F991F6A95E2F722
S113024082278BBB089528B381E090E002C0880F19
S1130250991F6A95E2F7822788BB089525B381E048
S113026090E002C0880F991F6A95E2F7822785BB48
S1130270089522B381E090E002C0880F991F6A9527
S1130280E2F7822782BB089541E067E081E00E94A3
S1130290360041E064E080E00E94360041E065E021
S11302A080E00E94360041E066E080E00E94360073
S11302B040E067E081E00E94A30040E064E080E069
S11302C00E94A30040E065E080E00E94A30040E0BB
S11302D066E080E00E94A3000895813059F028F080
S11302E0823069F0833081F0089567E081E00E94F4
S11302F01001089564E080E00E941001089565E013
S113030080E00E941001089566E080E00E941001E0
S113031008950E94440181E00E946D012FEF84E35F
S11303209CE0215080409040E1F700C00000F3CFF2
S1070330F894FFCF6B
S9030000FC
