S00D00004558312E332E73726563E8
S11300000C942A000C9434000C9434000C943400A6
S11300100C9434000C9434000C9434000C9434008C
S11300200C9434000C9434000C9434000C9434007C
S11300300C9434000C9434000C9434000C9434006C
S11300400C9434000C9434000C9434000C9434005C
S11300500C94340011241FBECFE5D8E0DEBFCDBF21
S11300600E946B020C948A020C94000040E067E04A
S113007083E00E94AA0040E066E083E00E94AA00B8
S113008040E065E083E00E94AA0040E063E083E092
S11300900E94AA000895813071F028F0823099F00E
S11300A08330C9F020C067E083E00E94B801811169
S11300B01CC081E0089566E083E00E94B8018111CC
S11300C016C081E0089565E083E00E94B8018111C3
S11300D010C081E0089563E083E00E94B8018111BB
S11300E00AC081E0089580E0089580E0089580E0EA
S11300F0089580E0089580E0089541E066E082E09C
S11301000E941701089540E066E082E00E94170112
S1130110089541E066E082E00E9417012FEF86E136
S113012091E1215080409040E1F700C0000040E0A0
S113013066E082E00E941701089541E066E082E0F3
S11301400E94AA0040E066E082E00E9417010E943B
S113015089000895813001F130F08230B1F18330AB
S113016009F44CC00895413059F42AB381E090E079
S113017002C0880F991F6A95E2F7822B8ABB089503
S11301802AB381E090E002C0880F991F6A95E2F7D4
S1130190809582238ABB0895413059F427B381E0C6
S11301A090E002C0880F991F6A95E2F7822B87BB03
S11301B0089527B381E090E002C0880F991F6A95E3
S11301C0E2F78095822387BB0895413059F424B324
S11301D081E090E002C0880F991F6A95E2F7822BB4
S11301E084BB089524B381E090E002C0880F991F76
S11301F06A95E2F78095822384BB0895413059F4CF
S113020021B381E090E002C0880F991F6A95E2F75C
S1130210822B81BB089521B381E090E002C0880F56
S1130220991F6A95E2F78095822381BB08958130F6
S113023001F130F08230B1F1833009F44CC00895FB
S113024041110CC02BB381E090E002C0880F991FCC
S11302506A95E2F7809582238BBB08952BB381E0E6
S113026090E002C0880F991F6A95E2F7822B8BBB3E
S1130270089541110CC028B381E090E002C0880FBA
S1130280991F6A95E2F78095822388BB089528B365
S113029081E090E002C0880F991F6A95E2F7822BF3
S11302A088BB089541110CC025B381E090E002C0E1
S11302B0880F991F6A95E2F78095822385BB08957C
S11302C025B381E090E002C0880F991F6A95E2F798
S11302D0822B85BB089541110CC022B381E090E0CC
S11302E002C0880F991F6A95E2F78095822382BB2A
S11302F0089522B381E090E002C0880F991F6A95A7
S1130300E2F7822B82BB0895813089F028F0823095
S1130310C9F0833011F108952BB381E090E002C05D
S1130320880F991F6A95E2F782278BBB089528B33B
S113033081E090E002C0880F991F6A95E2F7822756
S113034088BB089525B381E090E002C0880F991F0F
S11303506A95E2F7822785BB089522B381E090E095
S113036002C0880F991F6A95E2F7822782BB08951D
S1130370813079F028F08230A9F08330E1F024C094
S113038089B390E002C0959587956A95E2F78170EC
S1130390089586B390E002C0959587956A95E2F733
S11303A08170089583B390E002C0959587956A950E
S11303B0E2F78170089580B390E002C09595879527
S11303C06A95E2F78170089580E0089541E067E05E
S11303D081E00E94AA0041E064E080E00E94AA005B
S11303E041E065E080E00E94AA0041E066E080E030
S11303F00E94AA0040E067E081E00E94170140E00B
S113040064E080E00E94170140E065E080E00E9423
S1130410170140E066E080E00E94170108958130F2
S113042061F028F0823079F0833099F0089541E04A
S113043067E081E00E941701089541E064E080E0F4
S11304400E941701089541E065E080E00E941701D1
S1130450089541E066E080E00E941701089581302C
S113046061F028F0823079F0833099F0089540E00B
S113047067E081E00E941701089540E064E080E0B5
S11304800E941701089540E065E080E00E94170192
S1130490089540E066E080E00E94170108958130ED
S11304A059F028F0823069F0833081F0089567E0D4
S11304B081E00E948401089564E080E00E94840148
S11304C0089565E080E00E948401089566E080E07C
S11304D00E94840108950E94E6010E9436000E9451
S11304E09D0080E00E944B00813019F483E00E945B
S11304F04F0283E00E944B00813031F480E00E947F
S11305000F020E947D00EDCF80E00E942F020E9426
S10B05108300E7CFF894FFCF4C
S9030000FC
