:100000000C942A000C943C000C943C000C943C0092
:100010000C943C000C943C000C943C000C943C0070
:100020000C943C000C943C000C94F1010C94CA011B
:100030000C943C000C943C000C943C000C943C0050
:100040000C943C000C943C000C943C000C943C0040
:100050000C943C0011241FBECFE5D8E0DEBFCDBF1D
:1000600020E0A0E6B0E001C01D92A536B207E1F79E
:100070000E949E010C9433020C940000813001F127
:1000800030F08230B1F1833009F44CC00895413032
:1000900059F42AB381E090E002C0880F991F6A9555
:1000A000E2F7822B8ABB08952AB381E090E002C078
:1000B000880F991F6A95E2F7809582238ABB08957D
:1000C000413059F427B381E090E002C0880F991FB6
:1000D0006A95E2F7822B87BB089527B381E090E011
:1000E00002C0880F991F6A95E2F78095822387BB2B
:1000F0000895413059F424B381E090E002C0880FA4
:10010000991F6A95E2F7822B84BB089524B381E09E
:1001100090E002C0880F991F6A95E2F780958223CC
:1001200084BB0895413059F421B381E090E002C0CE
:10013000880F991F6A95E2F7822B81BB089521B33E
:1001400081E090E002C0880F991F6A95E2F78095E0
:10015000822381BB0895813001F130F08230B1F10A
:10016000833009F44CC0089541110CC02BB381E0D9
:1001700090E002C0880F991F6A95E2F7809582236C
:100180008BBB08952BB381E090E002C0880F991FCC
:100190006A95E2F7822B8BBB089541110CC028B3FE
:1001A00081E090E002C0880F991F6A95E2F7809580
:1001B000822388BB089528B381E090E002C0880FB5
:1001C000991F6A95E2F7822B88BB089541110CC0F4
:1001D00025B381E090E002C0880F991F6A95E2F78D
:1001E0008095822385BB089525B381E090E002C00D
:1001F000880F991F6A95E2F7822B85BB08954111FC
:100200000CC022B381E090E002C0880F991F6A956C
:10021000E2F78095822382BB089522B381E090E0CB
:1002200002C0880F991F6A95E2F7822B82BB08955E
:10023000813089F028F08230C9F0833011F10895BF
:100240002BB381E090E002C0880F991F6A95E2F716
:1002500082278BBB089528B381E090E002C0880F0D
:10026000991F6A95E2F7822788BB089525B381E03C
:1002700090E002C0880F991F6A95E2F7822785BB3C
:10028000089522B381E090E002C0880F991F6A951B
:10029000E2F7822782BB089541E067E081E00E9497
:1002A0003E0041E064E080E00E943E0041E065E005
:1002B00080E00E943E0041E066E080E00E943E0057
:1002C00040E067E081E00E94AB0040E064E080E055
:1002D0000E94AB0040E065E080E00E94AB0040E09F
:1002E00066E080E00E94AB000895813059F028F06C
:1002F000823069F0833081F0089567E081E00E94E8
:100300001801089564E080E00E941801089565E0F6
:1003100080E00E941801089566E080E00E941801C4
:10032000089580916000833019F481E00E94750186
:10033000809160008F5F8093600008950E944C015F
:100340000E9420020E94180281E991E00E94C501EA
:100350000E94C101FFCF83B78F7B83BF83B7877FA5
:1003600083BF83B7816083BF83B78D7F83BF83B72C
:10037000846083BF83B78F7E83BF83B78F7D83BF46
:10038000089589B7816089BF089590936400809330
:10039000630008951F920F920FB60F9211242F93AE
:1003A0003F934F935F936F937F938F939F93AF93FD
:1003B000BF93EF93FF93E0916300F0916400099580
:1003C000FF91EF91BF91AF919F918F917F916F912D
:1003D0005F914F913F912F910F900FBE0F901F9003
:1003E00018951F920F920FB60F9211242F933F93DF
:1003F0004F935F936F937F938F939F93AF93BF932D
:10040000EF93FF93E0916100F09162000995FF91F5
:10041000EF91BF91AF919F918F917F916F915F917C
:100420004F913F912F910F900FBE0F901F901895F5
:100430008FB780688FBF08958FB78F778FBF08956C
:100440000E94AB0189B78E7F89BF89B78D7F89BF35
:100450000E941C0288B7816088BF88B7826088BF0D
:0A04600012BE1CBE0895F894FFCFF1
:00000001FF
