:100000000C942A000C943F000C943F000C943F0089
:100010000C943F000C943F000C943F000C943F0064
:100020000C943F000C943F000C943F000C943F0054
:100030000C943F000C943F000C943F000C943F0044
:100040000C943F000C943F000C943F000C943F0034
:100050000C943F0011241FBECFE5D8E0DEBFCDBF1A
:1000600010E0A0E6B0E0ECE0F5E002C005900D92F3
:10007000AA36B107D9F70E945F020C9484020C944F
:100080000000813001F130F08230B1F1833009F4A9
:100090004CC00895413059F42AB381E090E002C089
:1000A000880F991F6A95E2F7822B8ABB08952AB3BD
:1000B00081E090E002C0880F991F6A95E2F7809571
:1000C00082238ABB0895413059F427B381E090E040
:1000D00002C0880F991F6A95E2F7822B87BB0895AB
:1000E00027B381E090E002C0880F991F6A95E2F77C
:1000F0008095822387BB0895413059F424B381E071
:1001000090E002C0880F991F6A95E2F7822B84BBAA
:10011000089524B381E090E002C0880F991F6A958A
:10012000E2F78095822384BB0895413059F421B3CE
:1001300081E090E002C0880F991F6A95E2F7822B58
:1001400081BB089521B381E090E002C0880F991F20
:100150006A95E2F78095822381BB0895813001F191
:1001600030F08230B1F1833009F44CC00895411170
:100170000CC02BB381E090E002C0880F991F6A95F4
:10018000E2F7809582238BBB08952BB381E090E04A
:1001900002C0880F991F6A95E2F7822B8BBB0895E6
:1001A00041110CC028B381E090E002C0880F991F74
:1001B0006A95E2F78095822388BB089528B381E091
:1001C00090E002C0880F991F6A95E2F7822B88BBE6
:1001D000089541110CC025B381E090E002C0880F62
:1001E000991F6A95E2F78095822385BB089525B310
:1001F00081E090E002C0880F991F6A95E2F7822B98
:1002000085BB089541110CC022B381E090E002C08B
:10021000880F991F6A95E2F78095822382BB089523
:1002200022B381E090E002C0880F991F6A95E2F73F
:10023000822B82BB0895E199FECF9FBB8EBB8CB30E
:1002400081608CBB8DB30895E199FECF07B600FCA9
:10025000FDCF7FBB6EBB8DBB8CB382608CBB8CB380
:1002600084608CBB8CB38E7F8CBB0895CF93C82FDA
:1002700040E060E081E00E94AE0040E061E081E0AB
:100280000E94AE0040E062E081E00E94AE0040E0EB
:1002900064E081E00E94AE0040E063E080E00E9404
:1002A000AE00C4FB442740F960E081E00E94AE004C
:1002B000C5FB442740F961E081E00E94AE00C6FB27
:1002C000442740F962E081E00E94AE004C2F441FB9
:1002D0004427441F64E081E00E94AE0041E062E0F8
:1002E00080E00E94AE0085E08A95F1F7000040E0D2
:1002F00062E080E00E94AE004C2F417060E081E03F
:100300000E94AE00C1FB442740F961E081E00E94F9
:10031000AE00C2FB442740F962E081E00E94AE00DB
:10032000C3FB442740F964E081E00E94AE0041E055
:1003300062E080E00E94AE0095E09A95F1F700003F
:1003400040E062E080E00E94AE008FE39FE1019711
:10035000F1F700C00000CF910895CF93C82F40E07F
:1003600060E081E00E94AE0040E061E081E00E9438
:10037000AE0040E062E081E00E94AE0040E064E058
:1003800081E00E94AE0041E063E080E00E94AE00A8
:10039000C4FB442740F960E081E00E94AE00C5FB49
:1003A000442740F961E081E00E94AE00C6FB44278B
:1003B00040F962E081E00E94AE004C2F441F4427C8
:1003C000441F64E081E00E94AE0041E062E080E012
:1003D0000E94AE0085E08A95F1F7000040E062E0FF
:1003E00080E00E94AE004C2F417060E081E00E94EE
:1003F000AE00C1FB442740F961E081E00E94AE00FD
:10040000C2FB442740F962E081E00E94AE00C3FBDA
:10041000442740F964E081E00E94AE0041E062E0E0
:1004200080E00E94AE0095E09A95F1F7000040E070
:1004300062E080E00E94AE008FE39FE10197F1F758
:1004400000C00000CF9108950E94AD010895CF93A0
:10045000DF93EC0103C021960E9424028881811160
:10046000FACFDF91CF91089541E063E080E00E94F0
:10047000410041E062E080E00E94410041E060E034
:1004800081E00E94410041E061E081E00E94410082
:1004900041E062E081E00E94410041E064E081E0EF
:1004A0000E94410082E00E94360188E20E943601EB
:1004B0008CE00E94360181E00E943601089561E0DF
:1004C00071E081E40E94240181E091E00E941B011F
:1004D000C82F0E9434028EE00E94360180E690E030
:1004E0000E94270280E18ABBC134E1F78BBB2FEF6A
:1004F00081EE94E0215080409040E1F700C0000080
:0C0500008C2F0E942402EECFF894FFCF55
:0A050C00436861722069733A000031
:00000001FF
